{
  "_format": "hh-sol-artifact-1",
  "contractName": "Multisig",
  "sourceName": "contracts/Multisig.sol",
  "abi": [
    {
      "inputs": [
        {
          "internalType": "address[]",
          "name": "_approvers",
          "type": "address[]"
        },
        {
          "internalType": "uint256",
          "name": "_quorum",
          "type": "uint256"
        }
      ],
      "stateMutability": "nonpayable",
      "type": "constructor"
    },
    {
      "inputs": [
        {
          "internalType": "address",
          "name": "",
          "type": "address"
        },
        {
          "internalType": "uint256",
          "name": "",
          "type": "uint256"
        }
      ],
      "name": "approvals",
      "outputs": [
        {
          "internalType": "bool",
          "name": "",
          "type": "bool"
        }
      ],
      "stateMutability": "view",
      "type": "function"
    },
    {
      "inputs": [
        {
          "internalType": "uint256",
          "name": "id",
          "type": "uint256"
        }
      ],
      "name": "approveTransfer",
      "outputs": [],
      "stateMutability": "nonpayable",
      "type": "function"
    },
    {
      "inputs": [
        {
          "internalType": "uint256",
          "name": "",
          "type": "uint256"
        }
      ],
      "name": "approvers",
      "outputs": [
        {
          "internalType": "address",
          "name": "",
          "type": "address"
        }
      ],
      "stateMutability": "view",
      "type": "function"
    },
    {
      "inputs": [
        {
          "internalType": "uint256",
          "name": "id",
          "type": "uint256"
        }
      ],
      "name": "declineTransfer",
      "outputs": [],
      "stateMutability": "nonpayable",
      "type": "function"
    },
    {
      "inputs": [],
      "name": "getApprovers",
      "outputs": [
        {
          "internalType": "address[]",
          "name": "",
          "type": "address[]"
        }
      ],
      "stateMutability": "view",
      "type": "function"
    },
    {
      "inputs": [],
      "name": "getQuorum",
      "outputs": [
        {
          "internalType": "uint256",
          "name": "memotry",
          "type": "uint256"
        }
      ],
      "stateMutability": "view",
      "type": "function"
    },
    {
      "inputs": [],
      "name": "getTransfers",
      "outputs": [
        {
          "components": [
            {
              "internalType": "uint256",
              "name": "id",
              "type": "uint256"
            },
            {
              "internalType": "address payable",
              "name": "to",
              "type": "address"
            },
            {
              "internalType": "uint256",
              "name": "amount",
              "type": "uint256"
            },
            {
              "internalType": "uint256",
              "name": "approvals",
              "type": "uint256"
            },
            {
              "internalType": "bool",
              "name": "sent",
              "type": "bool"
            }
          ],
          "internalType": "struct Multisig.Transfer[]",
          "name": "",
          "type": "tuple[]"
        }
      ],
      "stateMutability": "view",
      "type": "function"
    },
    {
      "inputs": [
        {
          "internalType": "address payable",
          "name": "to",
          "type": "address"
        },
        {
          "internalType": "uint256",
          "name": "amount",
          "type": "uint256"
        }
      ],
      "name": "newTransfer",
      "outputs": [],
      "stateMutability": "nonpayable",
      "type": "function"
    },
    {
      "inputs": [],
      "name": "quorum",
      "outputs": [
        {
          "internalType": "uint256",
          "name": "",
          "type": "uint256"
        }
      ],
      "stateMutability": "view",
      "type": "function"
    },
    {
      "inputs": [
        {
          "internalType": "uint256",
          "name": "",
          "type": "uint256"
        }
      ],
      "name": "transfers",
      "outputs": [
        {
          "internalType": "uint256",
          "name": "id",
          "type": "uint256"
        },
        {
          "internalType": "address payable",
          "name": "to",
          "type": "address"
        },
        {
          "internalType": "uint256",
          "name": "amount",
          "type": "uint256"
        },
        {
          "internalType": "uint256",
          "name": "approvals",
          "type": "uint256"
        },
        {
          "internalType": "bool",
          "name": "sent",
          "type": "bool"
        }
      ],
      "stateMutability": "view",
      "type": "function"
    },
    {
      "stateMutability": "payable",
      "type": "receive"
    }
  ],
  "bytecode": "0x60806040523480156200001157600080fd5b5060405162001945380380620019458339818101604052810190620000379190620001dd565b81600090805190602001906200004f9291906200005f565b508060018190555050506200033b565b828054828255906000526020600020908101928215620000db579160200282015b82811115620000da5782518260006101000a81548173ffffffffffffffffffffffffffffffffffffffff021916908373ffffffffffffffffffffffffffffffffffffffff1602179055509160200191906001019062000080565b5b509050620000ea9190620000ee565b5090565b5b8082111562000109576000816000905550600101620000ef565b5090565b6000620001246200011e846200026b565b62000237565b905080838252602082019050828560208602820111156200014457600080fd5b60005b858110156200017857816200015d888262000182565b84526020840193506020830192505060018101905062000147565b5050509392505050565b600081519050620001938162000307565b92915050565b600082601f830112620001ab57600080fd5b8151620001bd8482602086016200010d565b91505092915050565b600081519050620001d78162000321565b92915050565b60008060408385031215620001f157600080fd5b600083015167ffffffffffffffff8111156200020c57600080fd5b6200021a8582860162000199565b92505060206200022d85828601620001c6565b9150509250929050565b6000604051905081810181811067ffffffffffffffff82111715620002615762000260620002d8565b5b8060405250919050565b600067ffffffffffffffff821115620002895762000288620002d8565b5b602082029050602081019050919050565b6000620002a782620002ae565b9050919050565b600073ffffffffffffffffffffffffffffffffffffffff82169050919050565b6000819050919050565b7f4e487b7100000000000000000000000000000000000000000000000000000000600052604160045260246000fd5b62000312816200029a565b81146200031e57600080fd5b50565b6200032c81620002ce565b81146200033857600080fd5b50565b6115fa806200034b6000396000f3fe6080604052600436106100955760003560e01c80639377d711116100595780639377d71114610174578063c26c12eb146101b5578063cacca4a0146101e0578063d3650fb814610209578063ffabc673146102465761009c565b80631703a018146100a15780632f65142c146100cc57806354b4fdfd146100f757806360dded11146101205780636cb3e8ef146101495761009c565b3661009c57005b600080fd5b3480156100ad57600080fd5b506100b6610283565b6040516100c39190611392565b60405180910390f35b3480156100d857600080fd5b506100e1610289565b6040516100ee91906112d5565b60405180910390f35b34801561010357600080fd5b5061011e60048036038101906101199190610f2b565b610377565b005b34801561012c57600080fd5b5061014760048036038101906101429190610fa3565b61057d565b005b34801561015557600080fd5b5061015e610897565b60405161016b91906112b3565b60405180910390f35b34801561018057600080fd5b5061019b60048036038101906101969190610fa3565b610925565b6040516101ac9594939291906113ad565b60405180910390f35b3480156101c157600080fd5b506101ca610998565b6040516101d79190611392565b60405180910390f35b3480156101ec57600080fd5b5061020760048036038101906102029190610fa3565b6109a2565b005b34801561021557600080fd5b50610230600480360381019061022b9190610fa3565b610e7e565b60405161023d9190611298565b60405180910390f35b34801561025257600080fd5b5061026d60048036038101906102689190610f67565b610ebd565b60405161027a91906112f7565b60405180910390f35b60015481565b60606002805480602002602001604051908101604052809291908181526020016000905b8282101561036e57838290600052602060002090600502016040518060a0016040529081600082015481526020016001820160009054906101000a900473ffffffffffffffffffffffffffffffffffffffff1673ffffffffffffffffffffffffffffffffffffffff1673ffffffffffffffffffffffffffffffffffffffff16815260200160028201548152602001600382015481526020016004820160009054906101000a900460ff161515151581525050815260200190600101906102ad565b50505050905090565b6000805b600080549050811015610438573373ffffffffffffffffffffffffffffffffffffffff16600082815481106103d9577f4e487b7100000000000000000000000000000000000000000000000000000000600052603260045260246000fd5b9060005260206000200160009054906101000a900473ffffffffffffffffffffffffffffffffffffffff1673ffffffffffffffffffffffffffffffffffffffff16141561042557600191505b808061043090611507565b91505061037b565b506001151581151514610480576040517f08c379a000000000000000000000000000000000000000000000000000000000815260040161047790611332565b60405180910390fd5b60026040518060a0016040528060028054905081526020018573ffffffffffffffffffffffffffffffffffffffff168152602001848152602001600081526020016000151581525090806001815401808255809150506001900390600052602060002090600502016000909190919091506000820151816000015560208201518160010160006101000a81548173ffffffffffffffffffffffffffffffffffffffff021916908373ffffffffffffffffffffffffffffffffffffffff160217905550604082015181600201556060820151816003015560808201518160040160006101000a81548160ff0219169083151502179055505050505050565b6000805b60008054905081101561063e573373ffffffffffffffffffffffffffffffffffffffff16600082815481106105df577f4e487b7100000000000000000000000000000000000000000000000000000000600052603260045260246000fd5b9060005260206000200160009054906101000a900473ffffffffffffffffffffffffffffffffffffffff1673ffffffffffffffffffffffffffffffffffffffff16141561062b57600191505b808061063690611507565b915050610581565b506001151581151514610686576040517f08c379a000000000000000000000000000000000000000000000000000000000815260040161067d90611332565b60405180910390fd5b60001515600283815481106106c4577f4e487b7100000000000000000000000000000000000000000000000000000000600052603260045260246000fd5b906000526020600020906005020160040160009054906101000a900460ff16151514610725576040517f08c379a000000000000000000000000000000000000000000000000000000000815260040161071c90611352565b60405180910390fd5b60001515600360003373ffffffffffffffffffffffffffffffffffffffff1673ffffffffffffffffffffffffffffffffffffffff168152602001908152602001600020600084815260200190815260200160002060009054906101000a900460ff161515146107c9576040517f08c379a00000000000000000000000000000000000000000000000000000000081526004016107c090611372565b60405180910390fd5b6001600360003373ffffffffffffffffffffffffffffffffffffffff1673ffffffffffffffffffffffffffffffffffffffff168152602001908152602001600020600084815260200190815260200160002060006101000a81548160ff0219169083151502179055506002828154811061086c577f4e487b7100000000000000000000000000000000000000000000000000000000600052603260045260246000fd5b9060005260206000209060050201600301600081548092919061088e906114dd565b91905055505050565b6060600080548060200260200160405190810160405280929190818152602001828054801561091b57602002820191906000526020600020905b8160009054906101000a900473ffffffffffffffffffffffffffffffffffffffff1673ffffffffffffffffffffffffffffffffffffffff16815260200190600101908083116108d1575b5050505050905090565b6002818154811061093557600080fd5b90600052602060002090600502016000915090508060000154908060010160009054906101000a900473ffffffffffffffffffffffffffffffffffffffff16908060020154908060030154908060040160009054906101000a900460ff16905085565b6000600154905090565b6000805b600080549050811015610a63573373ffffffffffffffffffffffffffffffffffffffff1660008281548110610a04577f4e487b7100000000000000000000000000000000000000000000000000000000600052603260045260246000fd5b9060005260206000200160009054906101000a900473ffffffffffffffffffffffffffffffffffffffff1673ffffffffffffffffffffffffffffffffffffffff161415610a5057600191505b8080610a5b90611507565b9150506109a6565b506001151581151514610aab576040517f08c379a0000000000000000000000000000000000000000000000000000000008152600401610aa290611332565b60405180910390fd5b6000151560028381548110610ae9577f4e487b7100000000000000000000000000000000000000000000000000000000600052603260045260246000fd5b906000526020600020906005020160040160009054906101000a900460ff16151514610b4a576040517f08c379a0000000000000000000000000000000000000000000000000000000008152600401610b4190611352565b60405180910390fd5b60001515600360003373ffffffffffffffffffffffffffffffffffffffff1673ffffffffffffffffffffffffffffffffffffffff168152602001908152602001600020600084815260200190815260200160002060009054906101000a900460ff16151514610bee576040517f08c379a0000000000000000000000000000000000000000000000000000000008152600401610be590611312565b60405180910390fd5b6001600360003373ffffffffffffffffffffffffffffffffffffffff1673ffffffffffffffffffffffffffffffffffffffff168152602001908152602001600020600084815260200190815260200160002060006101000a81548160ff02191690831515021790555060028281548110610c91577f4e487b7100000000000000000000000000000000000000000000000000000000600052603260045260246000fd5b90600052602060002090600502016003016000815480929190610cb390611507565b919050555060015460028381548110610cf5577f4e487b7100000000000000000000000000000000000000000000000000000000600052603260045260246000fd5b90600052602060002090600502016003015410610e7a57600160028381548110610d48577f4e487b7100000000000000000000000000000000000000000000000000000000600052603260045260246000fd5b906000526020600020906005020160040160006101000a81548160ff021916908315150217905550600060028381548110610dac577f4e487b7100000000000000000000000000000000000000000000000000000000600052603260045260246000fd5b906000526020600020906005020160010160009054906101000a900473ffffffffffffffffffffffffffffffffffffffff169050600060028481548110610e1c577f4e487b7100000000000000000000000000000000000000000000000000000000600052603260045260246000fd5b90600052602060002090600502016002015490508173ffffffffffffffffffffffffffffffffffffffff166108fc829081150290604051600060405180830381858888f19350505050158015610e76573d6000803e3d6000fd5b5050505b5050565b60008181548110610e8e57600080fd5b906000526020600020016000915054906101000a900473ffffffffffffffffffffffffffffffffffffffff1681565b60036020528160005260406000206020528060005260406000206000915091509054906101000a900460ff1681565b600081359050610efb8161157f565b92915050565b600081359050610f1081611596565b92915050565b600081359050610f25816115ad565b92915050565b60008060408385031215610f3e57600080fd5b6000610f4c85828601610f01565b9250506020610f5d85828601610f16565b9150509250929050565b60008060408385031215610f7a57600080fd5b6000610f8885828601610eec565b9250506020610f9985828601610f16565b9150509250929050565b600060208284031215610fb557600080fd5b6000610fc384828501610f16565b91505092915050565b6000610fd8838361101a565b60208301905092915050565b6000610ff08383611212565b60a08301905092915050565b61100581611495565b82525050565b61101481611495565b82525050565b61102381611483565b82525050565b61103281611483565b82525050565b600061104382611420565b61104d8185611450565b935061105883611400565b8060005b838110156110895781516110708882610fcc565b975061107b83611436565b92505060018101905061105c565b5085935050505092915050565b60006110a18261142b565b6110ab8185611461565b93506110b683611410565b8060005b838110156110e75781516110ce8882610fe4565b97506110d983611443565b9250506001810190506110ba565b5085935050505092915050565b6110fd816114a7565b82525050565b61110c816114a7565b82525050565b600061111f601e83611472565b91507f43616e6e6f7420617070726f7665207472616e736665722074776963652e00006000830152602082019050919050565b600061115f601683611472565b91507f4f6e6c7920617070726f7665727320616c6c6f776564000000000000000000006000830152602082019050919050565b600061119f601983611472565b91507f5472616e73616374696f6e20616c72656164792073656e742e000000000000006000830152602082019050919050565b60006111df601e83611472565b91507f43616e6e6f74206465636c696e65207472616e736665722074776963652e00006000830152602082019050919050565b60a082016000820151611228600085018261127a565b50602082015161123b6020850182610ffc565b50604082015161124e604085018261127a565b506060820151611261606085018261127a565b50608082015161127460808501826110f4565b50505050565b611283816114d3565b82525050565b611292816114d3565b82525050565b60006020820190506112ad6000830184611029565b92915050565b600060208201905081810360008301526112cd8184611038565b905092915050565b600060208201905081810360008301526112ef8184611096565b905092915050565b600060208201905061130c6000830184611103565b92915050565b6000602082019050818103600083015261132b81611112565b9050919050565b6000602082019050818103600083015261134b81611152565b9050919050565b6000602082019050818103600083015261136b81611192565b9050919050565b6000602082019050818103600083015261138b816111d2565b9050919050565b60006020820190506113a76000830184611289565b92915050565b600060a0820190506113c26000830188611289565b6113cf602083018761100b565b6113dc6040830186611289565b6113e96060830185611289565b6113f66080830184611103565b9695505050505050565b6000819050602082019050919050565b6000819050602082019050919050565b600081519050919050565b600081519050919050565b6000602082019050919050565b6000602082019050919050565b600082825260208201905092915050565b600082825260208201905092915050565b600082825260208201905092915050565b600061148e826114b3565b9050919050565b60006114a0826114b3565b9050919050565b60008115159050919050565b600073ffffffffffffffffffffffffffffffffffffffff82169050919050565b6000819050919050565b60006114e8826114d3565b915060008214156114fc576114fb611550565b5b600182039050919050565b6000611512826114d3565b91507fffffffffffffffffffffffffffffffffffffffffffffffffffffffffffffffff82141561154557611544611550565b5b600182019050919050565b7f4e487b7100000000000000000000000000000000000000000000000000000000600052601160045260246000fd5b61158881611483565b811461159357600080fd5b50565b61159f81611495565b81146115aa57600080fd5b50565b6115b6816114d3565b81146115c157600080fd5b5056fea2646970667358221220f71cc935d752e114d8775f748697c316ee5a27c611b3c5b1d8c3f47e2b99a74164736f6c63430008000033",
  "linkReferences": {},
  "deployedLinkReferences": {}
}